:02000000ff00ff
:080002004c6174746963650030
:17000a00694345637562653220323032302e31322e32373934330071
:16002100506172743a2069434534304858314b2d56513130300002
:1b003700446174653a204a616e20323720323032342032313a33363a33380081
:0200520000ffad
:040054007eaa997e69
:02005800510055
:02005a0001059e
:03005c00920020ef
:03005f0062014bf0
:0300620072009099
:0300650082000016
:02006800110085
:02006a00010192
:20006c00000000000000000000000000000000000000000000000000000000000000000074
:09008c000000000000000000006b
:2000950000000000000000000000000000000000000000000000000000000000000000004b
:0a00b5000000000000000000000041
:2000bf00000000000000000000000000000000000000000000000000000000000000000021
:0900df0000000000000000000018
:2000e8000000000000000000000000000000000000000000000000000000000000000000f8
:0a01080000000000000000000000ed
:200112000000000000000000000000000000000000000000000000000000000000000000cd
:09013200000000000000000000c4
:20013b000000000000000000000000000000000000000000000000000000000000000000a4
:0a015b00000000000000000000009a
:200165000000000000040000000000001000000000000040000000001000000000000040d6
:0901850000000000000100000070
:20018e00000000000000000000000000000000000000000000000000000000000000000051
:0a01ae000000000000000000000047
:2001b800000000000004000000000000100000000000004000000000100000000000004083
:0901d8000000000000010000001d
:2001e1000000000000000000000000000000000000000000000000000000000000000000fe
:0a02010000000000000000000000f3
:20020b000000000000000000000000000000000000000000000000000000000000000000d3
:09022b00000000000000000000ca
:200234000000000000000000000000000000000000000000000000000000000000000000aa
:0a02540000000000000000000000a0
:20025e00000000000000000000000000000000000000000000000000000000000000000080
:09027e0000000000000000000077
:20028700000000000000000000000000000000000000000000000000000000000000000057
:0a02a700000000000000000000004d
:2002b10000000000000000000000000000000000000000000000000000000000000000002d
:0902d10000000000000000000024
:2002da00000000000000000000000000000000000000000000000000000000000000000004
:0a02fa0000000000000000000000fa
:200304000000000000000000000000000000000000000000000000000000000000000000d9
:09032400000000000000000000d0
:20032d00000000000000000000000000000000000040000000000000000000000000000070
:0a034d0000000000000000000000a6
:20035700000000000000000000000000000000000000000000000000000000000000000086
:090377000000000000000000007d
:2003800000000000000000000000000000000000000000000000000000000000000000005d
:0a03a0000000000000000000000053
:2003aa00000000000000000000000000000000000000000000000000000000000000000033
:0903ca000000000000000000002a
:2003d30000000000000000000000000000000000000000000000000000000000000000000a
:0a03f3000000000000000000000000
:2003fd000002000000000000000000000000000000000000000000000000000000000000de
:09041d00000000000000000000d6
:200426000000000000000000000000000000000000000000000000000000000000000000b6
:0a04460000000000000000000000ac
:2004500000000000000000000000000000000000000000000000000000000000000000008c
:0904700000000000000000000083
:20047900000020000000000000000000000000000000000000000000000000000000000043
:0a0499000000000000000000000059
:2004a300000000000000000000000000000000000000000000000000000000000000000039
:0904c30000000000000000000030
:2004cc00000000000000000000000000000000000000000000000000000000000000000010
:0a04ec000000000000000000000006
:2004f6000000000000000000000000000000000000000000000000000000000000000000e6
:09051600000000000000000000dc
:20051f000000000000000000000000000000000000000000000000000000000000000000bc
:0a053f0000000000000000000000b2
:20054900000000000000000000000000000000000000000000000000000000000000000092
:0905690000000000000000000089
:20057200000000000000000000000000000000000000000000000000000000000000000069
:0a059200000000000000000000005f
:20059c0000000000000000000000000000000000000000000000000000000000000000003f
:0905bc0000000000000000000036
:2005c500000000000000000000000000000000000000000000000000000000000000000016
:0a05e500000000000000000000000c
:2005ef000000000000000000000000000000000000000000000000000000000000000000ec
:09060f00000000000000000000e2
:200618000000000000000000000000000000000000000000000000000000000000000000c2
:0a06380000000000000000000000b8
:20064200000000000000000000000000000000000000000000000000000000000000000098
:090662000000000000000000008f
:20066b0000000000000000000000000000000000000000000000000000000000000000006f
:0a068b000000000000000000000065
:20069500000200000000000000000000000000000000000000000000000000000000000043
:0906b5000000000000000000003c
:2006be0000000000000000000000000000000000000000000000000000000000000000001c
:0a06de000000000000000000000012
:2006e8000000000000000000000000000000000000000000000000000000000000000000f2
:09070800000000000000000000e8
:200711000000200000000000000000000000000000000000000000000000000000000000a8
:0a07310000000000000000000000be
:20073b0000000000000000000000000000000000000000000000000000000000000000009e
:09075b0000000000000000000095
:20076400000000000000000000000000000000000000000000000000000000000000000075
:0a078400000000000000000000006b
:20078e0000000000000000000000000000000000000000000000000000000000000000004b
:0907ae0000000000000000000042
:2007b700000000000000000000000000000000000000000000000000000000000000000022
:0a07d7000000000000000000000018
:2007e1000000000000000000000000000000000000000000000000000000000000000000f8
:09080100000000000000000000ee
:20080a000000000000000000000000000000000000000000000000000000000000000000ce
:0a082a0000000000000000000000c4
:200834000000000000000000000000000000000000000000000000000000000000000000a4
:090854000000000000000000009b
:20085d0000000000000000000000000000000000004000000000000000000000000000003b
:0a087d000000000000000000000071
:20088700000000000000000000000000000000000000000000000000000000000000000051
:0908a70000000000000000000048
:2008b000000000000000000000000000000000000000000000000000000000000000000028
:0a08d000000000000000000000001e
:2008da000000000000000000000000000000000000000000000000000000000000000000fe
:0908fa00000000000000000000f5
:200903000000000000000000000000000000000000000000000000000000000000000000d4
:0a09230000000000000000000000ca
:20092d000002000000000000000000000000000000000000000000000000000000000000a8
:09094d00000000000000000000a1
:20095600000000000000000000000000000000000000000000000000000000000000000081
:0a0976000000000000000000000077
:20098000000000000000000000000000000000000000000000000000000000000000000057
:0909a0000000000000000000004e
:2009a90000002000000000000000000000000000000000000000000000000000000000000e
:0a09c9000000000000000000000024
:2009d300000000000000000000000000000000000000000000000000000000000000000004
:0909f300000000000000000000fb
:2009fc000000000000000000000000000000000000000000000000000000000000000000db
:0a0a1c0000000000000000000000d0
:200a26000000000000000000000000000000000000000000000000000000000000000000b0
:090a4600000000000000000000a7
:200a4f00000000000000000000000000000000000000000000000000000000000000000087
:0a0a6f00000000000000000000007d
:200a790000000000000000000000000000000000000000000000000000000000000000005d
:090a990000000000000000000054
:200aa200000000000000000000000000000000000000000000000000000000000000000034
:0a0ac200000000000000000000002a
:200acc0000000000000000000000000000000000000000000000000000000000000000000a
:090aec000000040000000a0f40a4
:200af5000000000000000000000000000000000000000000000000000000000000000000e1
:0a0b15000000002000000000f000c6
:200b1f000000000000000000000000000000000000000000000000000000000000000000b6
:090b3f000000020000000e9640c7
:200b480000000000000000000000000000000000000000000000000000000000000000008d
:0a0b68000000008000001406900059
:200b7200000000000000000000000000000000000000000000000000000000000000000063
:090b92000000000020000000003a
:200b9b0000000000000000000000000000000000000000000000000000000000000000003a
:0a0bbb0000000000004000000000f0
:200bc50000020000000000000000000000000000000000000000000000000000000000000e
:090be50000000000000000000007
:200bee000000000000000000000000000000000000000000000000000000000000000000e7
:0a0c0e0000000000000000000000dc
:200c18000000000000000000000000000000000000000000000000000000000000000000bc
:090c3800000000000000000000b3
:200c4100000020000000000000000000000000000000000000000000000000000000000073
:0a0c61000000000000000000000089
:200c6b00000000000000000000000000000000000000000000000000000000000000000069
:090c8b0000000000000000000060
:200c9400000000000000000000000000000000000000000000000000000000000000000040
:0a0cb4000000000000000000000036
:200cbe00000000000000000000000000000000000000000000000000000000000000000016
:090cde0000000000060000000007
:200ce7000000000000000000000000000000000000000000000000000000000000000000ed
:0a0d070000000000000000000000e2
:200d11000000000000000000000000000000000000000000000000000000000000000000c2
:090d3100000004000000000000b5
:200d3a00000000000000000000000000000000000000000000000000000000000000000099
:0a0d5a00000000000000000000008f
:200d640000000000000000000000000000000000000000000000000000000000000000006f
:090d840000000000000000000066
:200d8d000000000000000000000000000000000000400000000200000000000008000000fc
:0a0dad00000000200000000000001c
:200db70000000000000000000000000000000000000000000000000000000000000000001c
:090dd70000000000000000000013
:200de0000000000000000000000000000000000000000000000000000000000000000000f3
:0a0e000000000000000000000000e8
:200e0a000000000000000000000000000000000000000000000000000000000000000000c8
:090e2a00000000000000000000bf
:200e330000000000000000000000000000000000000000000000000000000000000000009f
:0a0e53000000000000000000000095
:200e5d00000200000000000000000000000000000000000000000000000000000000000073
:090e7d000000000000000000006c
:200e8600000000000000000000000000000000000000000000000000000000000800000044
:0a0ea6000000002000000000000022
:200eb000000000000000000000000000000000000000000000000000000000000000000022
:090ed00000000000000000000019
:200ed9000000200000000000000000000000000000000000000000000000000000000000d9
:0a0ef90000000000000000000000ef
:200f03000000000000000000000000000000000000000000000000000000000000000000ce
:090f2300000000000000000000c5
:200f2c000000000000000000000000000000000000000000000000000000000000000000a5
:0a0f4c00000000000000000000009b
:200f560000000000000000000000000000000000000000000000000000000000000000007b
:090f760000000000000000000072
:200f7f00000000000000000000000000000000000000000000020000000000000000000050
:0a0f9f000000000000000000000048
:200fa900000000000000000000000000000000000000000000000000000000000000000028
:090fc9000000000000000000001f
:200fd2000000000000000000000000000000000000000000000000000000000000000000ff
:0a0ff20000000000000000000000f5
:200ffc000000000000000000000000000000000000000000000000000000000000000000d5
:09101c00000000000000600080eb
:201025000000000000000000000000000000000000000000000000000000000000000000ab
:0a10450000000000000002b00000ef
:20104f00000000000000000000000000000000000000000000000000000000008000000001
:09106f0000000200006948f0c015
:20107800000000000000000000000000000000000000000000000000000000002000000038
:0a1098000000008000000000f000de
:2010a200000000000000000000000000000000000000000000000000000000010000180015
:0910c20000000400066d48f0c0b6
:2010cb000000000000000000000000000000000000000000000000000000000020000000e5
:0a10eb000000008000020200f00087
:2010f5000002000000000000000000000000000000000000000000000000000000001802bf
:0911150083d000000605c850c09b
:20111e000000000000000000000000000000000000000000000000000000000000000000b1
:0a113e00403c000000020e0050804b
:20114800000000000000000000000000000000000000000000000000000000000000000087
:09116800000000000e01e8f0c0d7
:2011710000002000000000000000000000000000000000000000000000000000000000003e
:0a1191000000000000200000f00044
:20119b00000000000000000000000000000000000000000000000000000000000000000034
:0911bb0000000000000168f0c012
:2011c40000000000000000000000000000000000000000000000000000000000000000000b
:0a11e4000000000000000000f00011
:2011ee000000000000000000000000000000000000000000000000000000000000000000e1
:09120e0000000000006168f0c05e
:201217000000000000000000000000000000000000000000000000000000000000000000b7
:0a1237000000000000000200f000bb
:20124100000000000000000000000000000000000000000000000000000000000000005637
:09126100a59000002061e8f0c036
:20126a00000000000000000000000000000000000000000000000000000000000000000064
:0a128a00c258000000400200f0000e
:201294000000000000000000000000000000000000000000000000001600080000000bde33
:0912b400c20000000003c850c094
:2012bd0000000000000000000000000000000000004000000000000c002800000000009508
:0a12dd00ac00000000000c005040bf
:2012e7000000000000000000000000000000000000000000002000001c8f0c00000d8a3f3a
:09130700000082000003c850c080
:2013100000000000000000000000000000000000000000000008000000000f080000500945
:0a1330008008008000001400500047
:20133a00000000000000000000000000000000000000000000000006548f0c0000019a0003
:09135a000000040000674850c0c7
:2013630000000000000000000000000000000000000000000000000020200f08000008000b
:0a1383000000008000020e00500080
:20138d00000200000000000000000000000000000000000000000060148f0c0000099992fb
:0913ad008800000006074850c04a
:2013b60000000000000000000000000000000000000000000000000030200f000000999986
:0a13d600b400000001c21600500030
:2013e0000000000000000000000000000000000000000000000000001e8f0c0000058900a6
:09140000000000000001e8f0c04a
:2014090000002000000000000000000000000000000000000000000000000f00000000a0f4
:0a1429000000000000000000f000c9
:20143300000000000000000000000000000000000000000000000000168f0c000008019a45
:09145300bd48000000036850c10f
:20145c0000000000000000000000000000000000000000000000000000000f00000050a170
:0a147c0043fc800003401400500000
:201486000000000000000000000000000000000000000000000000601e8f0c0000081a33d8
:0914a600a0001000260168f0c04e
:2014af0000000000000000000000000000000000000000000000000000200f008000500b13
:0a14cf003c00000000400200f000a5
:2014d900000000000000000000000000000000000000000000c002065e8f0c000000000032
:0914f900000000002063e850c06f
:2015020000000000000000000000000000000000000000000008000420200f00000000006e
:0a1522000000000000401600501009
:20152c0000000000000000000000000000000000000000000000e0001c8f0c00100d8ade83
:09154c00600800000003c850c053
:2015550000000000000000000000000000000000000000000000000000000f040080500d86
:0a157500b000000000000400504028
:20157f000068000000000000000000000000000000000000002000001c8f0c00000588037d
:09159f00280002002003c850c01e
:2015a80000040000000000000000000000000000000000000008000000000f000000010304
:0a15c80001400080014014005000b3
:2015d200300000000000000000000000000000000000000000040006548f0c00000501b317
:0915f200c000040000674850c06d
:2015fb0000000000000000000000000000000000000000000000a00020200f00000000a53c
:0a161b00fa000080000206005000f3
:20162500000300000000000000000000000000000000000000000060548f0d0000079bf3bd
:09164500a000800020034850c001
:20164e0000000000000000000000000000000000000000000000000020200f20000000a964
:0a166e00800000000140160050004b
:201678000000000000000000000000000000000000000000000000001e8f0c00000d9a7280
:09169800200080000001e8f0e0f0
:2016a10000000000000000000000000000000000000000000000000000000f2000005005a5
:0a16c1004000020000000000f000ed
:2016cb00000000000000000000000000000000000000000000000000168f0c00000000004e
:0916eb00000000000003e850407b
:2016f40000000000000000000000000000000000000000000000000000000f000000700057
:0a1714000000000000001400500067
:20171e00000000000000000000000000000000000000000000000260168f0c00000189000e
:09173e000000000026000000007c
:2017470008000000000000000000000000000000000000000000000400200f00000010a097
:0a1767000000000000400000000038
:20177100000000000000000000000000000000000000000000c002061e8f0c000005981723
:09179100bdc400002600000000a8
:20179a0010000000000000000000000000000000000000000008000400200f0000000101e2
:0a17ba006ffc00000040000000007a
:0217c400000023
:0217c60011010f
:0217c80001011d
:2017ca000000020000000000000800000000000020000000000800000000000000000000cd
:0917ea00000000000000000000f6
:2017f3000000000000000000000000000000000000000000000000000000000000000000d6
:0a18130000000000000000000000cb
:20181d00000001001c00000000040000000000001000000000040000000000000000000076
:09183d000000000003000000009f
:20184600000000000200000000000000000000000000000000000000000000000000000080
:0a18660000000000008000000000f8
:201870000000020000000c0000080000000000002000000080080018001000000000000072
:091890000000000000000000004f
:20189900000000000000004000000000000100000000000004000000800300000000000067
:0a18b9000000000000000000000025
:2018c300000000000004000000000000100000000001404000000000100000000000004020
:0918e300000000000001000000fb
:2018ec000000000000000000000000000000000000000000000000000000000000000000dc
:0a190c0000000000000000000000d1
:2019160000000000000400000000000010000000000000400000001830000000000000c055
:09193600000000000001000000a7
:20193f00000000000000000000000000000000000000000000000000800000000000000008
:0a195f00000000000000000000007e
:2019690000000000000000000000000000000000000000000000000000300000000000002e
:09198900c0000000000000c000d5
:201992000000000000000000000000000000000000000000000080000002000002000000b1
:0a19b2000000000000000004000027
:2019bc0000000000000000000000000000000000000000000000000000000000000000000b
:0919dc0000000000000000000002
:2019e5000000000000000000000000000000000000000000000040000000000001001c0085
:0a1a050000000000000000000000d7
:201a0f0000000000000400000000000810000000000000400000000010000000000000004b
:091a2f00000000000000000000ae
:201a3800000000000000000000000007800000000000000000008000000000000200000085
:0a1a58000000000000000000000084
:201a62000000000000000000000000000000000000000000000000000fc090000000000005
:091a82000000000000000000005b
:201a8b0000000000000000000000000000000000000000000000000003cab040000000007e
:0a1aab000000000000000000000031
:201ab500000000000000000000000000000000000000000000000000000000000000000011
:091ad50000000000000000000008
:201ade000000000000000000000000000000000000000000000000003800000000000000b0
:0a1afe0000000000000000000000de
:201b080000000000000000000000000000000000000000000000002000000000000000009d
:091b2800000000000000000000b4
:201b3100000000000000000000000000000000000000000000000004000000000000000090
:0a1b5100000000000000000000008a
:201b5b00000200000000000000000000000000000000000000000000000000000000000068
:091b7b0000000000000000000061
:201b840000000000000000000000000000000000000000000000001c000000000000000025
:0a1ba4000000000000000000000037
:201bae0000000000000000000000e0000000000000000000000000000fc020000000000048
:091bce000000000000000000000e
:201bd70000002000000000000000000000000000000000000000000003ca38400000000089
:0a1bf70000000000000000000000e4
:201c010000000000000000000000000000000000000000000000000034f4c10000000000da
:091c2100000000000000000000ba
:201c2a0000000000000000000000000000000000000000000000000020ec2040000000002e
:0a1c4a000000000000000000000090
:201c54000000003000000000000000000000000000000000008000000fc9210000000000c7
:091c740000000000000000000067
:201c7d0000000000000000000000000000000000000000000002000003ca854000000000b3
:0a1c9d00000000000000000000003d
:201ca70000000000000000000000000000000000000000000000000034fa000000000000ef
:091cc70000000000000000000014
:201cd00000000000000000000000000000000000000000000000000000ec82400000000046
:0a1cf00000000000000000000000ea
:201cfa000000000000000000000000000000000000000000000000000000000000000000ca
:091d1a00000000000000000000c0
:201d23000000000000000000000000000000000000000000000000000000000000000000a0
:0a1d43000000000000000000000096
:201d4d00000000000000000000000000000000000000000000000000000000000000000076
:091d6d000000000000000000006d
:201d760000000000000000000000000000000000000000000000000000000000000000004d
:0a1d96000000000000000000000043
:201da000000000000000000000000000000000000000000000040000000000000000005ac5
:091dc0004e0000000000000000cc
:201dc900000000000000000000000000000000000000000000008000000000000000000575
:0a1de9006dc10400000000000000be
:201df3000002000000000000000000000000000000000000000000000000000000000000ce
:091e1300000000000000000000c6
:201e1c000000000000000000000000000000000000000000000000000000000000000000a6
:0a1e3c00000000000000000000009c
:201e460000000000000000000000000000000000000000000000e00000000000000000009c
:091e660000000000000000000073
:201e6f00000020000000000000000000000000000000000000000000000000000000100023
:0a1e8f000000000000000000000049
:201e990000000000000000000000000000000000000000000000000000000000000f10000a
:091eb90000000000000000000020
:201ec20000000000000000000000000000000000000000000000000000000000000001e01f
:0a1ee20000000000000000000000f6
:201eec000000000000000000000000000000000000000000000000000000000210001000b4
:091f0c00000000000000000000cc
:201f1500000000000000000000000000000000000000000000000000000000000a0001e0c1
:0a1f350000000000000000000000a2
:201f3f0000000000000000000000000000000000040000000000000000000000000000007e
:091f5f0000000000000000000079
:201f6800000000000000000000000000000000000000000000000000000000000000000059
:0a1f8800000000000000000000004f
:201f920000000000000000000000000000000000000000000000000000000000000000002f
:091fb20000000000000000000026
:201fbb00000000000000000000000000000000000000000000000000000000000000000006
:0a1fdb0000000000000000000000fc
:201fe5000000000000000000000000000000000000000000000000000000000000000000dc
:09200500000000000000000000d2
:20200e000000000000000000000000000000000000000000000000000000000000000000b2
:0a202e0000000000000000000000a8
:20203800000000000000000000000000000000000000000000000000000000000000000088
:092058000000000000000000007f
:2020610000000000000000000000000000000000000000000000000000000000000000005f
:0a2081000000000000000000000055
:20208b00000200000000000000000000000000000000000000000000000000000000000033
:0920ab000000000000000000002c
:2020b40000000000000000000000000000000000000000000000000000000000000000000c
:0a20d4000000000000000000000002
:2020de000000000000000000000000000000000000000000000000000000000000000000e2
:0920fe00000000000000000000d9
:20210700000020000000000000000000000000000000000000000000000000000000000098
:0a21270000000000000000000000ae
:2021310000000000000000000000000000000000000000000000000000000000000000008e
:0921510000000000000000000085
:20215a00000000000000000000000000000000000000000000000000000000000000000065
:0a217a00000000000000000000005b
:2021840000000000000000000000000000000000000000000000000000000000000000003b
:0921a40000000000000000000032
:2021ad00000000000000000000000000000000000000000000000000000000000000000012
:0a21cd000000000000000000000008
:2021d7000000000000000000000000000000000000000000000000000000000000000000e8
:0921f700000000000000000000df
:202200000000000000000000000000000000000000000000000000000000000000000000be
:0a22200000000000000000000000b4
:20222a00000000000000000000000000000000000000000000000000000000000000005044
:09224a00168000000000000000f5
:2022530000000000000000000000000000000000000000000000000000000000000000006b
:0a22730002950000000000000000ca
:20227d00000000000000000000000000000000000000000000000000000000000000000839
:09229d002a82000000000000008c
:2022a600000000000000000000000000000000000000000000000000000000000000000315
:0a22c600aaa90000000000000000bb
:2022d0000000000000000000000000000000000000000000000000000000000000000004ea
:0922f0003c0000000000000000a9
:2022f90000000000000000000000000000000000000000000000000000000000000019802c
:0a23190033c10000000000000000c6
:20232300000200000000000000000000000000000000000000000000000000000000080090
:0923430000000000000000000091
:20234c00000000000000000000000000000000000000000000000000000000000000181049
:0a236c000000000000000000000067
:20237600000000000000000000000000000000000000000000000000000000000000000047
:092396000000000e000000000030
:20239f000000200000000000000000000000000000000000000000000000000000000000fe
:0a23bf000000000000000000000014
:2023c9000000000000000000000000000000000000000000000000000000000000010000f3
:0923e9003c0000000000000000af
:2023f20000000000000000000000000000000000000000000000000000000000000080004b
:0a24120033c10000000000000000cc
:20241c0000000000000000000000000000000000000000000000000000000002000000049a
:09243c003c00000000000000005b
:2024450000000000000000000000000000000000000000000000000000000000080000006f
:0a24650023c1000000000000000089
:20246f000000000000000000000000000000000004000000002000000000000080000a009f
:09248f003c000000000000000008
:20249800000000000000000000000000000000000000000000000000000000000000000024
:0a24b80073c10000000000000000e6
:2024c200000000000000000000000000000000000000000000000003800000000000000077
:0924e200000000000028000000c9
:2024eb000000000000000000000000000000000000000000000000000400000000000000cd
:0a250b000000000001c040000000c5
:20251500000000000000000000000000000000000000000000200000000000000000000086
:0925350000000000143e60a50046
:20253e0000000000000000000000000000000000000000000000000000000000000000007d
:0a255e000000000002005caa00006b
:20256800000000000000000000000000000000000000000000000000000000000000000053
:092588000000000000200000002a
:202591000000000000000000000000000000000000000000000000003800000000000000f2
:0a25b10000000000000040000000e0
:2025bb0000020000000000000000000000000000000000000000000380000000000000007b
:0925db00000000000000000000f7
:2025e4000000000000000000000000000000000000000000000000000000000000000000d7
:0a26040000000000000700000000c5
:20260e00000000000000000000000000000000000000000000000000000000001800100480
:09262e003c0040000042703c2019
:202637000000200000000000000000000000000000000000000000000000000002000180e0
:0a2657006bc10000000717c1c4b4f6
:2026610008000000000000000000000000000000000000000000000000000000000000044d
:092681003c000000040260f300bb
:20268a0004000000000000000000000000000000000000000000000c000000000000000020
:0a26aa0023c1000000000cef7020b7
:2026b4008000000000000000000000000000000000000000008000000000000200000b04f5
:0926d4003c0448000003d8f700a3
:2026dd000000000000000000000000000000000000000000000200000000000008000000d3
:0a26fd0063c1002001c03fbe700061
:20270700002e0000000000000000000000000000000000000020000017d6400080000000b7
:0927270000000208002800000077
:2027300004004000000000000000000000000000000000000000000000fe30500000018046
:0a2750000000000000060000000079
:20275a0000000000000000000000000000000000000000000000e00000000000000000007f
:09277a00000000003c6810f000b2
:20278300000000000000000000000000000000000000000000000000000000000000000036
:0a27a30000000000000380ef0400b6
:2027ad000000000000000000000000000000000000000000000000000000000000400900c3
:0927cd00000000000042f00800c9
:2027d6000000000000000000000000000000000000000000000000000000000000020000e1
:0a27f60000000000000216c00024dd
:2028000000000000000000000000000000000000000000000000c00000000000000b0000ed
:092820000000000080286fe708a9
:2028290000000000000000000000000000000000000000000000000000000000000081a06e
:0a28490000000000100017bfb000ef
:20285300000200000000000000000000000000000000000000000000000000000000000063
:0928730000000000006250550154
:20287c0000000000000000000000000000000000000000000000000000000000000000003c
:0a289c00000000000006158a50003d
:2028a600000000000000000000000000000000000000000000000000000000000000000012
:0928c600294000009c26fb0401de
:2028cf000000200000000000000000000000000000000000000000000000000000000001c8
:0a28ef000295000017e78dd00000ed
:2028f9000000000000000000000000000000000000000000000000000000000100000004ba
:092919003c0000009403d0df082b
:20292200000000000000000000000000000000000000000000000000000000001100000084
:0a29420073c100000347b68f702038
:20294c00000000000000000000000000000000000000000000000000000000020000000069
:09296c003c00180000026eff009f
:2029750000000000000000000000000000000000000000000000000000000000080000003a
:0a29950073c100200002b4b330004b
:20299f0000000000000000000000000000000000040000000000000000000000000f0e04f3
:0929bf003c000000262ad840016a
:2029c80000000000000000000000000000000000000000000000000000000000000080105f
:0a29e8003bc100000042c4c500001e
:2029f2000000000000000000000000000000000000000000000000000000000000000a0caf
:092a12002a80000000007a200077
:202a1b0000000000000000000000000000000000000000000000000068000000000001a191
:0a2a3b00aaa8000000061fa704006f
:202a4500000000000000000000000000000000000000000000000000000000000001000070
:092a6500000000000000506c00ac
:202a6e000000000000000000000000000000000000000000000000000000000000005800f0
:0a2a8e000000000000668e8ac120df
:202a98000000000000000000000000000000000000000000000000000200a000000000f488
:092ab8002000000e023a505f00fc
:202ac10000000000000000000000000000000000000000000000000001ea0a010000500fa0
:0a2ae1007a80080000e61ce1802066
:202aeb000002000000000000000000000000000000000000000000000000000000000ad6e9
:092b0b00408000000042f0fa00d5
:202b140000000000000000000000000000000000000000000000000000000000000000079a
:0a2b3400240000000002aeca0000f9
:202b3e00000000000000000000000000000000000000000000000000000000000001009cda
:092b5e003cc210001402602400c6
:202b67000000200000000000000000000000000000000000000000000000000000008003ab
:0a2b870023c58800016297a05420c6
:202b910000000000000000000000000000000000000000000000002000000000200000d014
:092bb100028000001401cffd00b8
:202bba0000000000000000000000000000000000000000000000001e00000000000001805c
:0a2bda0070140000020007bff000b5
:202be4000000000000000000000000000000000000000000000000000000000200000900c6
:092c040000000800020240080073
:202c0d0000000000000000000000000000000000000000000000000000000000080000009f
:0a2c2d00000000200142bda0542069
:202c37000000000000000000000000000000000000000000000000000000000000001f0856
:092c57003d4000002403c0f5001b
:202c60000000000000000000000000000000000000000000000000000000000000000187cc
:0a2c8000ebd40000014627aff0007e
:202c8a0000000000000000000000000000000000000000000080000000000000000000b2f8
:092caa00420800001c01c0fc00fe
:202cb3000000000000000000000000000000000000000000000c0000000000000000000bea
:0a2cd300e441800000c03f8fd020d4
:202cdd000000000000000000000000000000000000000000000000000000000000000000d7
:092cfd00000000000069da1e006d
:202d06000000000000000000000000000000000000000000000000000000000000000000ad
:0a2d2600000000000002afd25000d0
:202d300000000000000000000000000000000000000000000000000000000000000900007a
:092d5000000000000068d95500e4
:202d5900000000000000000000000000000000000000000000000c000000000000000180cd
:0a2d79000000000001625ef510008a
:202d830000020000000000000000000000000000000000000000000000000000000000002e
:092da300000000000037c0e70049
:202dac00000000000000000000000000000000000000000000000000000000000000000007
:0a2dcc00000000000166c6af5020b1
:202dd6000000000000000000000000000000000000000000000000000000000000000000dd
:092df600000000000000c0e7002d
:202dff0000072000000000000000000000000000000000000000000000000000000000008d
:0a2e1f000000000001e0200db020cb
:202e2900200000000000000000000000000000000000000000000040000000000000000029
:092e4900000000002402f9ee0073
:202e52004300000000000000000000000000000000000000000000200000000000000000fd
:0a2e72000000000000002cf77000c3
:202e7c0000000000000000000000000000000000000000000080000000000002000510009f
:092e9c0000000000042c20f500e8
:202ea50000000000000000000000000000000000000000000002000000000000080000a063
:0a2ec5000000000002668d8f50002f
:202ecf00000000000000000000000000000000000400000000000000000550440000000046
:092eef00000000000000000000da
:202ef8000000000000000000000000000000000000000000000000000148554000000000dc
:0a2f180000000000000000000000af
:022f22000000ad
:022f2400110298
:022f26000101a7
:202f2800000000000000000000000000000000000000000000000000000000000000000089
:092f480000000000000000000080
:202f5100000000000000000000000000000000000000000000000000000000000000000060
:0a2f71000000000000000000000056
:202f7b00000000000000000000000000000000000000000000000000000000000000000036
:092f9b000000000000000000002d
:202fa40000000000000000000000000000000000000000000000000000000000000000000d
:0a2fc4000000000000000000000003
:202fce000000000000000000000000000000000000000000000000000000000000000000e3
:092fee00000000000000000000da
:202ff7000000000000000000000000000000000000000000000000000000000000000000ba
:0a30170000000000000000000000af
:203021000000000000080000000000002000000000080000000000002000000000000080bf
:0930410000000000000203800001
:20304a00000000000000000000000000000000000000000000000000000000000000000066
:0a306a000000000000000004000058
:2030740000000000000800000000000020000000000800000000000020000000000000806c
:0930940000000000000200000031
:20309d00000000000000000000000000000000000000000000000000000000000000000013
:0a30bd000000000000000000000009
:2030c7000000000000000000000000000000000000000000000000000000000000000000e9
:0930e700000000000400000000dc
:2030f0000000000000000000000000000000000000000000000000000000000000000000c0
:0a3110000000000000800000000035
:20311a00000000000000000000000000000000000000000000000000000000000000000095
:09313a000000000000000000008c
:2031430000000000000000000000000000000000000000000000000000000000000000006c
:0a3163000000000000000000000062
:20316d00000000000000000000000000000000000000000000000000000000000000000042
:09318d0000000000000000000039
:20319600000000000000000000000000000000000000000000000000000000000000000019
:0a31b600000000000000000000000f
:2031c0000000000000000000000000000000000000000000000000000000000000000000ef
:0931e000000000000000000000e6
:2031e9000000000000000000000000000000000000000000080000000000000000000000be
:0a32090000000000000000000000bb
:2032130000000000000000000000000000000000000000000000000000000000000000009b
:0932330000000000000000000092
:20323c00000000000000000000000000000000000000000000000000000000000000000072
:0a325c000000000000000000000068
:20326600000000000000000000000000000000000000000000000000000000000000000048
:093286000000000000000000003f
:20328f0000000000000000000000000000000000000000000000000000000000000000001f
:0a32af000000000000000000000015
:2032b9000002000000000000000000000000000000000000000000000000000000000000f3
:0932d900000000000000000000ec
:2032e2000000000000000000000000000000000000000000000000000000000000000000cc
:0a33020000000000000000000000c1
:20330c000000000000000000000000000000000000000000000000000000000000000000a1
:09332c0000000000000000000098
:20333500000020000000000000000000000000000000000000000000000000000000000058
:0a335500000000000000000000006e
:20335f0000000000000000000000000000000000000000000000000000000000000000004e
:09337f0000000000000000000045
:20338800000000000000000000000000000000000000000000000000000000000000000025
:0a33a800000000000000000000001b
:2033b2000000000000000000000000000000000000000000000000000000000000000000fb
:0933d200000000000000000000f2
:2033db000000000000000000000000000000000000000000000000000000000000000000d2
:0a33fb0000000000000000000000c8
:203405000000000000000000000000000000000000000000000000000000000000000000a7
:093425000000000000000000009e
:20342e0000000000000000000000000000000000000000000000000000000000000000007e
:0a344e000000000000000000000074
:20345800000000000000000000000000000000000000000000000000000000000000000054
:093478000000000000000000004b
:2034810000000000000000000000000000000000000000000000000000000000000000002b
:0a34a1000000000000000000000021
:2034ab00000000000000000000000000000000000000000000000000000000000000000001
:0934cb00000000000000000000f8
:2034d4000000000000000000000000000000000000000000000000000000000000000000d8
:0a34f40000000000000000000000ce
:2034fe000000000000000000000000000000000000000000000000000000000000000000ae
:09351e00000000000000000000a4
:20352700000000000000000000000000000000000000000000000000000000000000000084
:0a354700000000000000000000007a
:20355100000200000000000000000000000000000000000000000000000000000000000058
:0935710000000000000000000051
:20357a00000000000000000000000000000000000000000000000000000000000000000031
:0a359a000000000000000000000027
:2035a400000000000000000000000000000000000000000000000000000000000000000007
:0935c400000000000000000000fe
:2035cd000000200000000000000000000000000000000000000000000000000000000000be
:0a35ed0000000000000000000000d4
:2035f7000000000000000000000000000000000000000000000000000000000000000000b4
:09361700000000000000000000aa
:2036200000000000000000000000000000000000000000000000000000000000000000008a
:0a3640000000000000000000000080
:20364a00000000000000000000000000000000000000000000000000000000000000000060
:09366a0000000000000000000057
:20367300000000000000000000000000000000000000000000000000000000000000000037
:0a369300000000000000000000002d
:20369d0000000000000000000000000000000000000000000000000000000000000000000d
:0936bd0000000000000000000004
:2036c6000000000000000000000000000000000000000000000000000000000000000000e4
:0a36e60000000000000000000000da
:2036f00000000000000000000000000000000000000000000000000000000000020f700039
:09371000000000000000000000b0
:20371900000020000000000000000000000000000000000008000000000000000800f00070
:0a3739000000000000000000000086
:20374300000000000000000000000000000000000000000000000000000000000000000066
:093763000000400000000000001d
:20376c0000000000000000000000000000000000000000000000000000000000000000003d
:0a378c00000001000000000b000027
:20379600000000000000000000000000000000000000000000000000000000000000000013
:0937b600000030000000000000da
:2037bf000000000000000000000000000000000000000000000000000000000000000000ea
:0a37df0000000200000000000000de
:2037e9000000000000000000000000000000000000000000080000000000000000000000b8
:09380900000000039e7a00a000fb
:20381200000000000000000000000000000000000000000000800000000000000000000016
:0a3832000000000032ccd0100000ae
:20383c0000000000000000000000000000000000000000000000000000000000000000006c
:09385c0000000103fccf708000a4
:2038650004002000000000000000000000000000000000000000000000000000000000011e
:0a388500c000000400c0c0000000f5
:20388f00000000000000000000000000000000000000000000000000000000000000000019
:0938af0000000000000000e00030
:2038b8000000000000000000000000000000000000000000000000000000000000000000f0
:0a38d80000000000000000080000de
:2038e2000000000000000000000000000000000000000000000000000000000000000000c6
:09390200000500000000001000a7
:20390b00080000000000000000000000000000000000000000000000000000000000000094
:0a392b00020000000000000a000086
:20393500000000000000000000000000000000000000000000000000000000000000000072
:0939550000000000000000000069
:20395e00000000000000000000000000000000000000000000000000000000000000000049
:0a397e00000000000000000000003f
:2039880000000000000000000000000000000000000000000000000000000000000000001f
:0939a80000000000000050b00016
:2039b1000000240000000000000000000000000000000000000000000000000000000000d2
:0a39d100000404000000009a00004a
:2039db000000000000000000000000000000000000000000000000000000000000000000cc
:0939fb0000004000000000000083
:203a0400080004000000000000000000000000000000000000000000000000000000000096
:0a3a24000000010000000000000097
:203a2e0000000000000000000000000000000000000000000000000000000000026970405d
:093a4e0000000002bc5b19a0009d
:203a570000000000000000000000000000000000000000000000000000000400000960a83a
:0a3a7700000004003fc2ad00000093
:203a8100000100000000000000000000000000000000000000000000000000000000000024
:093aa10060000000054850a0007f
:203aaa000000000000000000000000000000000000000000000000000000000000000000fc
:0a3aca000000000000348d9b000096
:203ad400000080000000000000000000000000000000000000000000000000000000000052
:093af4000000010215da000000d7
:203afd000000000000000000000000000000000000000000000000000000000000000000a9
:0a3b1d00000000002143000e00002c
:203b27000000000000000000000000000000000000000000000000000000000002f0580034
:093b470000000003bf6d800000c6
:203b500000000000000000028000000000000000000000000000000000000000000f0000c4
:0a3b7000000000003fdef309000032
:203b7a0000000000000000000000000000000000000000000000000000000000000000200b
:093b9a0000000100016f80100021
:203ba3000800000000000000000000000000000000000000000000000000000000000000fa
:0a3bc300400000000202d10d0000d6
:203bcd000000000000000000000000000000000000000000000000000000000000000000d8
:093bed000000290000ea000000bc
:203bf60000000000000000000000000000000000000000007000000000000000000000003f
:0a3c1600000001000041fb0e000059
:203c2000000000000000000000000000000000000000000000004001c00000000000000083
:093c400001000004000e00000068
:203c4900800000000000000000000000000000010000000008000002c0000001000000010e
:0a3c690040280400001c00000010b9
:203c730000000000000000000000000000000000000000000000c3c4e000001000000000ba
:093c93000000000c3c4a00000195
:203c9c000000000000000001000000000000000000000000000003c0000000004000000004
:0a3cbc00000000003c0000000004be
:203cc60000000000000000000000000000000000000000000000c3c4a9800000000000002e
:093ce6000000000c3c4a9980002a
:203cef000000000000000000000000000000000000000000000003c01010000100000000d1
:0a3d0f00000000003c01010000006c
:203d190000020000000000000000000000000000000000000000c3c4a818000000015a00e6
:093d39002800000c3c4a818000c6
:203d42000000000000000000000000000000000000000000000003c01010000000000f70ff
:0a3d6200000600003c010100000013
:203d6c0000000000000000000000000000000000000000000000c3c5e800000000000000c7
:093d8c006800000c3c5e00000020
:203d95000000200000000000000000000000000000000000000003c000900000000000009b
:0a3db500000000003c0000000000c8
:203dbf0000000000000000000000000000000000000000000000c3c5a018000000af77403e
:093ddf006c00000c3c5a000000cd
:203de8000000000000000000000000000000000000000000000003c000010000000ff0b048
:0a3e0800028000003c0000000000f2
:203e120000000000000000000000000000000000000000000000c3c5a0180000000000361a
:093e32000000000c3c5a01900054
:203e3b000000000000000000000000000000000000000000000003c0100000000000000193
:0a3e5b00400004003c0100190000c3
:203e650000000000000000000000000000000000000000000000c3c5e1810008000000004b
:093e85000000000c3c5e18100066
:203e8e008000000000000000000000000000000000000000000003c0100080004000000001
:0a3eae00000000003c0100080000c5
:203eb80000684000000000000000000000000000000000000000c3c4e000000000e793263b
:093ed8000000000c3c4e0000004b
:203ee1000000280000000000000000000000000000000000000083c000000000200cb3bdba
:0a3f0100c000000c3c0000000000ae
:203f0b0000000000000000000000000000000010000000000001c3c4e000001000ef5b7c48
:093f2b000000040c3c4e000001f2
:203f34000800000000000000000000000000000040000000000003c000000000400fffa56f
:0a3f5400600000003c0000000004c3
:203f5e000000000000000000000000000000000c000000000000c3c4a980000040005fb434
:093f7e000000000c3c4a98000010
:203f870000000000000000000000000000000000c0000000000003c010100014000080bc27
:0a3fa700400000043c01010000008e
:203fb100000300000000000000000000000e0000000000000000c3c4a818000000a556e6b7
:093fd1002800004c3c4a818000ec
:203fda000000000000000000000000000001000000000000000003c0101000000000a0ae95
:0a3ffa00600000003c01010000001f
:2040040000000000000000000000000000000000000000000000c3c5e00000020001bfdc96
:094024006400000c3c5e00000089
:20402d000000000000000000000000000000000000000000000003c0000000000000077c2d
:0a404d00228000043c000000000087
:204057004000000000000020000083d600000000000000000000c3c5a00000004000568052
:094077006c00000c3c5a00000032
:2040800000800000000000010008003c0000000000000000000003c000000000008020ac4c
:0a40a000028000023c000000000056
:2040aa0000000000000000000000000007000000000000000000c3c5a019000000017376c4
:0940ca000060000c3c5a0190005a
:2040d3000800000000000000000000000008000000000000000003c01000800001000965fb
:0a40f30042c000003c01000800007c
:2040fd0040000000000000000000000000000000000000000000c3c5e1810008000000363b
:09411d002400000c3c5e181000a7
:204126008000000000000000000000000000000000000000000003c0100080004000000165
:0a414600468000013c010008000063
:2041500040000000000000000000000000000000000000000000aa84a00000000000000041
:094170000000000aa84a0000004a
:204179000000200000000000000000000000000000000000080282a80000000000000000d2
:0a419900000000082a80000000006a
:2041a3000000000000000000000000000000000000000000000000000000001000000000ec
:0941c300000040000000000001b2
:2041cc0008000000000000000000000000000000000000000000000000000000400000008b
:0a41ec0000000100000000000004c4
:2041f600440000000000000000000000000000000000000000000000000100000000000064
:094216000000000000000010008f
:20421f0000c00000000000000000000000000000000000000000000000008000000000003f
:0a423f00000000000000000800006d
:2042490000030000000000000000000000000000000000000000000000000100000000064b
:0942690004000000000000000048
:2042720000000000000000000000000000000000000000000000000000000000000000002c
:0a4292000200000000000000000020
:20429c000000000000000000000000000000080000000000000000000000000012695840e7
:0942bc00000000000000000000f9
:2042c500000020000000000000000000000000000000000000000000000000000009602c24
:0a42e50000000000000000000000cf
:2042ef00446800000000000000000000000000000000000000000000000000000000000003
:09430f00000000000000000000a5
:2043180000c380000000000000000000000000000000000000000000000000000000000042
:0a433800000000000000000010006b
:2043420000000000000000000000000000000000000000000000000000000000000000005b
:0943620000000000000000000052
:20436b0008000000000000000000000000000000000000000000000000000000000000002a
:0a438b000000000000000000000028
:204395004000000000000000000000000000000000000000000000000000000812f0580066
:0943b500000030000000000000cf
:2043be0080000000000000000000000000000000000000000000000000000000400f008090
:0a43de0000000100000000000000d4
:2043e800400000000001c000000000000000000000000000000000000000000000003ec0b6
:094408006c00000000000000003f
:204411000000000000000000000000000000000000000000000000000000000000004d74ca
:0a44310003800000000003000000fb
:20443b0000000009d3b00000000130edb000000000000000000000000000001040805a00dd
:09445b0000004000077978180008
:2044640008800000677640000000038f6c0000000000000000000000000000006000002015
:0a44840000000100003ee089400046
:20448e004400000000000000000000000000000000000000000000000000000c0000001ea0
:0944ae003800010215ce000000e7
:2044b70000c00000000000000000000000000000000000000000000000000000c000000065
:0a44d7000000000021420f00000069
:2044e100000300000000000000000000080e000000000000000000000000000000000000a2
:0945010030000102944f18000083
:20450a0000000000000000000000000000d0000000000000000000000000000000000002bf
:0a452a00c000000037c3c08000008d
:2045340000000000000200000000000008000000000000000000000000001c000000000041
:094554000100014355580010005c
:20455d000000200000003c000000000000b000000000000000000000001000000000000022
:0a457d000020000015c3c00f00006d
:204587000038000000000040002003ddb11c000000000000002383cc00000000020f5000fc
:0945a70078000000000001e000b2
:2045b000000400000000003c0000023fec000000000000000000003c200000000000f00230
:0a45d0004000000000000010000091
:2045da00000000000000004000000000090000000000000000000000038000800000000075
:0945fa00010000000000788000bf
:2046030000000000000000340000000000b00000000000000000000000080010000000009b
:0a462300002000000000078f0000d7
:20462d000000000000000000000031edb0000000000000020000000000000000000000009d
:09464d00000000017dde81b000d7
:2046560000000000000000000000130eec0000000000000000000000000000000000000037
:0a4676000000000017c0070e00004e
:02468000000038
:02468200110322
:02468400010132
:20468600000000000000000000000000000000000000000000000000000000000000000014
:0946a6000000000000000000000b
:2046af000000000000000000000000000000000000000000000000000000000000000000eb
:0a46cf0000000000000000000000e1
:2046d9000000000000000000000000000000000000000000000000000000000000000000c1
:0946f900000000000000000000b8
:20470200000000000000000000000000000000000000000000000000000000000000000097
:0a472200000000000000000000008d
:20472c0000000000000000000000000000000000000000000000000000000000000000006d
:09474c0000000000000000000064
:20475500000000000000000000000000000000000000000000000000000000000000000044
:0a477500000000000000000000003a
:20477f0000000000000800000000000020000000000800000000000020000000000000804a
:09479f000000000000020000000f
:2047a8000000000000000000000000000000000000000000000000000000000000000000f1
:0a47c80000000000000000000000e7
:2047d2000000000000080000000000002000000000080000000000002000000000000080f7
:0947f200000000000002000000bc
:2047fb0000000000000000000000000000000000000000000000000000000000000000009e
:0a481b000000000000000000000093
:20482500000000000000000000000000000000000000000000000000000000000000000073
:094845000000000000000000006a
:20484e0000000000000000000000000000000000000000000000000000000000000000004a
:0a486e000000000000000000000040
:20487800000000000000000000000000000000000000000000000000000000000000000020
:0948980000000000000000000017
:2048a1000000000000000000000000000000000000000000000000000000000000000000f7
:0a48c10000000000000000000000ed
:2048cb000000000000000000000000000000000000000000000000000000000000000000cd
:0948eb00000000000000000000c4
:2048f4000000000000000000000000000000000000000000000000000000000000000000a4
:0a4914000000000000000000000099
:20491e00000000000000000000000000000000000000000000000000000000000000000079
:09493e0000000000000000000070
:20494700000000000000000000000000000000000000000000000000000000000000000050
:0a4967000000000000000000000046
:20497100000000000000000000000000000000000000000000000000000000000000000026
:094991000000000000000000001d
:20499a000000000000000000000000000000000000000000000000000000000000000000fd
:0a49ba0000000000000000000000f3
:2049c4000000000000000000000000000000000000000000000000000000000000000000d3
:0949e400000000000000000000ca
:2049ed000000000000000000000000000000000000000000000000000000000000000000aa
:0a4a0d00000000000000000000009f
:204a170000020000000000000000000000000000000000000000000000000000000000007d
:094a370000000000000000000076
:204a4000000000000000000000000000000000000000000000000000000000000000000056
:0a4a6000000000000000000000004c
:204a6a0000000000000000000000000000000000000000000000000000000000000000002c
:094a8a0000000000000000000023
:204a93000000200000000000000000000000000000000000000000000000000000000000e3
:0a4ab30000000000000000000000f9
:204abd000000000000000000000000000000000000000000000000000000000000000000d9
:094add00000000000000000000d0
:204ae6000000000000000000000000000000000000000000000000000000000000000000b0
:0a4b060000000000000000000000a5
:204b1000000000000000000000000000000000000000000000000000000000000000000085
:094b30000000000000000000007c
:204b390000000000000000000000000000000000000000000000000000000000000000005c
:0a4b59000000000000000000000052
:204b6300000000000000000000000000000000000000000000000000000000000000000032
:094b830000000000000000000029
:204b8c00000000000000000000000000000000000000000000000000000000000000000009
:0a4bac0000000000000000000000ff
:204bb6000000000000000000000000000000000000000000000000000000000000000000df
:094bd600000000000000000000d6
:204bdf000000000000000000000000000000000000000000000000000000000000000000b6
:0a4bff000004030000000000000c99
:204c0900000000000000000000000000000000000000000000000000000000000000000487
:094c290000000000000000000082
:204c3200000000000000000000000000000000000000000000000000000000000000000260
:0a4c52000600000000000000000052
:204c5c00000000000000000000000000000000000000000000000000000000000000000038
:094c7c000001000000000000002e
:204c850000000000000000000000000000000000000000000000000000000000000000000f
:0a4ca5000000000000000000000005
:204caf000002000000000000000000000000000000000000000000000000000000000000e3
:094ccf00000000000000000000dc
:204cd8000000000000000000000000000000000000000000000000000000000000000000bc
:0a4cf80000000000000000000000b2
:204d0200000000000000000000000000000000000000000000000000000000000000000091
:094d220000000000000000000088
:204d2b00000020000000000000000000000000000000000000000000000000000000000048
:0a4d4b00000000000000000000005e
:204d55000000000000000000000000000000000000000000000000000000000010f0080036
:094d7500000000000000008000b5
:204d7e0000000000000000000000000000000000000000000000000000000000002f0700df
:0a4d9e00000000000000000100000a
:204da80000000000000000000000000000000000000000000000000000000040009603c052
:094dc800000010000000000000d2
:204dd1004000000000000000000000000000000000000000000000000000000001269700c4
:0a4df10000000400000000000010a4
:204dfb00000000000000000000000000000000000000000080000000000000000000000018
:094e1b0000000082a80000000064
:204e240000000000000000000000000000000000000000000000000000000000000000006e
:0a4e440000000000aa84a000000096
:204e4e00000000000000000000000000000000000000000000000000000000000000000044
:094e6e0000000003c010008000e8
:204e770000000000000000000000000000000000000000000000000000000000000000001b
:0a4e970000000000c3c5e181000c1b
:204ea10000000000000000000000000000000000000000000000000000000000000036c0fb
:094ec10040000003c01000800055
:204eca0000000000000000000000000000000000000000000000000000000000000011eccb
:0a4eea0006000000c3c5a019000077
:204ef40000000000000000000000000000000000000000000000000000000000000000009e
:094f140000000003c000000000d1
:204f1d00000000000000000000000000000000000000000000000000000000000000000074
:0a4f3d0000000000c3c5a000000042
:204f4700000200000000000000000000000000000000000000000000000000000000002424
:094f67002c000003c00000000052
:204f700000000000000000000000000000000000000000000000000000000000000000021f
:0a4f900000000000c3c5e0000000af
:204f9a000000000000000000000000000000000000000000000000000000000000000014e3
:094fba0000000003c0101000000b
:204fc3000000200000000000000000000000000000000000000000000000000000000003ab
:0a4fe30060000000c3c4a81800001d
:204fed00000000000000000000000000000000000000000000000000000000000000bbb435
:09500d0000000003c010100000b7
:20501600000000000000000000000000000000000000000000000000000000000000152045
:0a50360000000000c3c4a9800000c0
:20504000000000000000000000000000000000000000000000000000000000000000000050
:0950600000000003c00000000084
:205069004000000000000000000000000000000000000000000000000000000000000000e7
:0a50890006800000c3c4e000001020
:205093000000000000000000000000000000000000000000000000000000000000000000fd
:0950b30040000083c00000000071
:2050bc000000000000000000000000000000000000000000000000000000000000000000d4
:0a50dc0002800000c3c4e0000000e1
:2050e6000000000000000000000000000000000000000000000000000000000000850c0613
:095106002c000003c01000900011
:20510f000000000000000000000000000000000000000000000000000000000004085163c0
:0a512f00c0000000c3c5e180000cc1
:205139000000000000000000000000000000000000000000000000000000000000ff0a86c7
:095159006c000003c0100000000e
:2051620000000000000000000000000000000000000000000000000000000000000af16fc3
:0a51820042800000c3c5a018000021
:20518c00000000000000000000000000000000000000000000000000000000000000000003
:0951ac002c000003c0000000000b
:2051b50000000000000000000000000000000000000000004000000000000000000000009a
:0a51d50060000000c3c5a000000048
:2051df000002000000000000000000000000000000000000000000000000000000000e742c
:0951ff0028004003c0000000017b
:2052080000000000000000000000000000000000000000000000000000000000048807688b
:0a52280000400000c3c5a000000014
:20523200000000000000000000000000000000000000000000000000000000000004ffb4a5
:0952520028000003c010108000c8
:20525b0000002000000000000000000000000000000000000000000000000000000009bc4e
:0a527b0006c00000c3c4a81900001b
:205285000000000000000000000000000000000000000000000000000180000c00ffbb8042
:0952a50000000003c0101000001d
:2052ae0000000000000000000000000000000000000000000000000000580000800ef1b851
:0a52ce0000000000c3c4a980000026
:2052d80000000000000000000000000000000000000000000000000000000004085706d479
:0952f80000000003c000000000ea
:2053010040000000000000000000000000000000000000000000000000000001040d537f68
:0a53210060000000c3c4e0000010ab
:20532b000000000000000000000000000000000000000000802403c20000001000cb3ff4eb
:09534b00000040000240100001c6
:2053540000000000000000000000000000000000000000000000483d40000000000e7bb932
:0a537400600000004001e0000000ae
:20537e0000000000000000000000000000000000000000000000000007000001000f0800f0
:09539e0000000000000000000006
:2053a700000000000000000000000000000000000000000000000000000000000020f700cf
:0a53c7000680000000000000000056
:2053d1000000000000000000000000000000000000000000000403c20000000000000000f3
:0953f10000000250603d0000d0f4
:2053fa0000000000000000000000000000000000000000000000083d40000000000000000e
:0a541a00600000308216d000008010
:20542400000000000000000000000000000000000000000000000903c00e0000100f080067
:0954440024000002d26a100000ed
:20544d000000000000000000000000000000000000000000000348204c0010000020f580e3
:0a546d00064000001c0ed8000800e5
:20547700000000000000000000000000000000000000000000000282c1800000000f000041
:0954970000000000000000a0006c
:2054a000000000000000000000000000000000000000000000000000dbf9e0000020f380a5
:0a54c00006000000000007010000d4
:2054ca00000000000000000000000000000000000000000000000000000a0000000f002485
:0954ea00000000000000509000d9
:2054f300000000000000000000000000000000000000000000000000000000080120f382fb
:0a5513006000000000000800000026
:20551d00000000000000000000000000000000000000000000000207c5000000000f00028f
:09553d0000000000000000000065
:20554600000000000000000000000000000000000000000000000093ed8000000020f30032
:0a55660060000000000000000000db
:20557000000000000000000000000000000000000000000000000000000a0004100f0002ec
:09559000200010000000000000e2
:20559900400000000000000000000000000000000000008000000000000000010020f180a0
:0a55b9006040040000000000001034
:2055c3000000000000000000000000000000001000000000000000000500001000ffdf8045
:0955e3000000400142dc0000015f
:2055ec0000000000000000000000000000000000000000000000000000000000000fb1ecf3
:0a560c000000000004368580000055
:20561600000000000000000000000000000000000000000000062834a000400000a5001c71
:0956360000000000000008000063
:20563f00000000000000000000000000000000000000000000000900e9018000002a50223c
:0a565f0000000000000001800000c0
:2056690000000000000000000000000000000000000000000001296dc00e0000000f0802a3
:09568900000000000000f0f00038
:20569200000000000000000000000000000000000000000000000922cb01e0000020f7808a
:0a56b200e000000000000780008007
:2056bc00000000000000000000000000000000000000000000000300010f000000000014a7
:0956dc0000000000000000a0081d
:2056e500000000000000000000000000000000000000000000010031c0981000000000000b
:0a5705000005000000000001014053
:20570f0000020000000000000000000000000000000000000006014200000000000f080018
:09572f00000000203c2008a0004d
:205738000000000000000000000000000000000000000000000050146e0180100020f500d9
:0a5758000000000083c605000000f9
:205762000000000000000000000000000000000000000000000016b4bf1b0000000f08006c
:0957820001000042a82a00c00049
:20578b000000200000000000000000000000000000000000000019225c80a0000020f38094
:0a57ab00002e0000295fc00000007e
:2057b5000000000000000000000000000000000000000000000025940d004000000000349a
:0957d500000030410019009000b1
:2057de000000000000000000000000000000000000000000000005a640000a0000000000b6
:0a57fe0000000311001ce001000090
:205808000000000000000000000000000000000000000000000003c10000a044000f0000c9
:095828002c301820003dd00000d6
:2058310040000000000000000000000000000000000000000000043c5c3985c10020f1806b
:0a58510000000400141d8700001081
:20585b00000000000000000000000000000000000000000080003c1d00080000000000004c
:09587b0024000001026c70000819
:2058840000000000000000000000000000000000000000000000043e7c00118000000000b5
:0a58a40000400000002da0000100ec
:2058ae00000000000000000000000000000000000000000000000000000000000000000cce
:0958ce0000000000143950a00094
:2058d7000000000000000000000000000000000000000000000000000000000000000002af
:0a58f700000000002bddf5010000a9
:2059010000000000000000000000000000001c00000000000000000001000000000f082c26
:0959210000000002bc2b00e000b4
:20592a00000000000000000000000000000000000000000000000000008000000020f38248
:0a594a0040000000015fd50a0000d4
:205954000000000000000000000000000000000000000000000003c0000d0000000f001e36
:0959740028000003fdea500008c0
:20597d0000000000000000000000000000000000000000000000083ce00190000020f382c0
:0a599d0046c000013bc4999a014086
:2059a7000002000000000000000000000000000000000000000003c200000000000f081ce6
:0959c700000000017c1d500000ed
:2059d00000000000000000000000000000000000000000000000183dc00000000020f7800b
:0a59f00000000000014d881a0000bd
:2059fa0000000000000000000000000000000000000000000000000000000000000f080076
:095a1a0000400002bc19009000dc
:205a2300000020000000000000000000000000000000000000000000000000000060f38070
:0a5a430000000000015dd5810c0099
:205a4d000000000000000000000000000000400000000000000203c000080000000f080015
:095a6d0000003010643900000053
:205a760000000000000000000000000000000800000000000000083d400010000020f7005c
:0a5a9600000003100f4e979a000065
:205aa00000000000000000000000000000000000000000000000000000000004000f0800cb
:095ac00000001003e80910800049
:205ac900000000000000000000000000000000000000000000000000000000010020f300a9
:0a5ae900000004100606ad81000065
:205af3000000000000000000000000000000000000000000000003c000000000000f0000c1
:095b1300000000017c1bd0b00071
:205b1c0000000000000000000000000000000000000000000000083ce00000000020f380b2
:0a5b3c0000000400015f85800000f6
:205b46000000000000000000000030cfa1000000000000000000000000000000000000009f
:095b6600000000000000008000b6
:205b6f0000000000000000000000138f7880000000000000000000000001c00000000000bb
:0a5b8f0000000000000000012000eb
:205b99000800000000000000000003c2000000000000000000000000070000000000000018
:095bb90000000000805e00a00065
:205bc20000000000000000000000083d60000000000000000000000000800000000000009e
:0a5be20000000000941f801b080063
:205bec00000000000000000000000000001000000000000000001401ff0000000000000075
:095c0c0000000003fc097000080f
:205c15000000000000000000000000000000e0000000000000003001fc0000000000000062
:0a5c350007800030b7dc9800000083
:205c3f000002000000000000000000000000400000000000000000000000000000000704f8
:095c5f0024000002940c00f00482
:205c680000000000000000000000000000000a00000000000000000000000000040021e20b
:0a5c8800000000000000e000000032
:205c920000000000000000000000000001000000000000000000000000000000005f0a4048
:095cb2004000000381c90000005c
:205cbb0000002000000000000000000000700000000000000000000000000000000ff5280d
:0a5cdb0006000000b03c900000003d
:205ce500000000000000000000000000000e0000000000000000000000008000005a028233
:095d050000040000000000000091
:205d0e0002000000000000000000000000000000000000000000000000000000002a5005f4
:0a5d2e00e680000000000000000005
:205d38000000000000000000000000000d00000400000000000000000000010000a0040293
:095d5800400012003c2000000094
:205d610040000000000000000000000000800001000000000000000000000008000a05b199
:0a5d8100e200040083ce05000010cc
:205d8b000000000000000000000017c300000000000000008000000000000000000f00028d
:095dab0000000000000000b0003f
:205db40000028000000000000000217d7e0000000000000000000000000000000020f3819d
:0a5dd400c000000000000001000004
:025dde000000c3
:035de00062003f1f
:035de300720080cb
:025de6001100aa
:035de80082000036
:025deb000103b2
:085ded000000000000000000ae
:085df5000000000000000000a6
:085dfd0000000000000000009e
:085e0500000000000000000095
:0261ed000000b0
:0361ef00820080ab
:0261f2000103a7
:0861f4000000000000000000a3
:0861fc0000000000000000009b
:08620400000000000000000092
:08620c0000000000000000008a
:0265f4000000a5
:0265f600110191
:0365f8008200001e
:0265fb0001039a
:0865fd00000000000000000096
:0866050000000000000000008d
:08660d00000000000000000085
:0866150000000000000000007d
:0269fd00000098
:0369ff0082008093
:026a020001038e
:086a040000000000000000008a
:086a0c00000000000000000082
:086a140000000000000000007a
:086a1c00000000000000000072
:026e040000008c
:026e0600110277
:036e080082000005
:026e0b00010381
:086e0d0000000000000000007d
:086e1500000000000000000075
:086e1d0000000000000000006d
:086e2500000000000000000065
:02720d0000007f
:03720f008200807a
:02721200010376
:08721400000000000000000072
:08721c0000000000000000006a
:08722400000000000000000062
:08722c0000000000000000005a
:02761400000074
:0276160011035e
:03761800820000ed
:02761b00010369
:08761d00000000000000000065
:0876250000000000000000005d
:08762d00000000000000000055
:0876350000000000000000004d
:027a1d00000067
:037a1f0082008062
:027a220001035e
:087a240000000000000000005a
:087a2c00000000000000000052
:087a340000000000000000004a
:087a3c00000000000000000042
:027e240000005c
:017e26002239
:027e2700570cf6
:027e2900010650
:00000001FF
